{
  "contractName": "ChessGames",
  "abi": [
    {
      "constant": true,
      "inputs": [
        {
          "name": "",
          "type": "uint256"
        }
      ],
      "name": "games",
      "outputs": [
        {
          "name": "id",
          "type": "uint256"
        },
        {
          "name": "whitePlayer",
          "type": "string"
        },
        {
          "name": "blackPlayer",
          "type": "string"
        },
        {
          "name": "whiteElo",
          "type": "uint256"
        },
        {
          "name": "blackElo",
          "type": "uint256"
        },
        {
          "name": "platform",
          "type": "string"
        },
        {
          "name": "result",
          "type": "string"
        }
      ],
      "payable": false,
      "stateMutability": "view",
      "type": "function",
      "signature": "0x117a5b90"
    },
    {
      "constant": true,
      "inputs": [],
      "name": "gamesCount",
      "outputs": [
        {
          "name": "",
          "type": "uint256"
        }
      ],
      "payable": false,
      "stateMutability": "view",
      "type": "function",
      "signature": "0xfb632b7c"
    },
    {
      "inputs": [],
      "payable": false,
      "stateMutability": "nonpayable",
      "type": "constructor",
      "signature": "constructor"
    },
    {
      "anonymous": false,
      "inputs": [
        {
          "indexed": false,
          "name": "id",
          "type": "uint256"
        },
        {
          "indexed": false,
          "name": "whitePlayer",
          "type": "string"
        },
        {
          "indexed": false,
          "name": "blackPlayer",
          "type": "string"
        },
        {
          "indexed": false,
          "name": "whiteElo",
          "type": "uint256"
        },
        {
          "indexed": false,
          "name": "blackElo",
          "type": "uint256"
        },
        {
          "indexed": false,
          "name": "platform",
          "type": "string"
        },
        {
          "indexed": false,
          "name": "result",
          "type": "string"
        }
      ],
      "name": "GameAdded",
      "type": "event",
      "signature": "0xbf554370a08a558b7d8718d97dea4172d2bbef333b0000a295c420c14a0f71dc"
    },
    {
      "constant": false,
      "inputs": [
        {
          "name": "_whitePlayer",
          "type": "string"
        },
        {
          "name": "_blackPlayer",
          "type": "string"
        },
        {
          "name": "_whiteElo",
          "type": "uint256"
        },
        {
          "name": "_blackElo",
          "type": "uint256"
        },
        {
          "name": "_platform",
          "type": "string"
        },
        {
          "name": "_result",
          "type": "string"
        }
      ],
      "name": "addGame",
      "outputs": [],
      "payable": false,
      "stateMutability": "nonpayable",
      "type": "function",
      "signature": "0x45253866"
    }
  ],
  "bytecode": "0x6080604052600080553480156200001557600080fd5b506200010d6040805190810160405280600e81526020017f4d61676e7573204361726c73656e0000000000000000000000000000000000008152506040805190810160405280601281526020017f49616e204e65706f6d6e69616368746368690000000000000000000000000000815250610b27610ade6040805190810160405280601c81526020017f4649444520576f726c64204368616d70696f6e736869702032303231000000008152506040805190810160405280600581526020017f31202d203000000000000000000000000000000000000000000000000000000081525062000113640100000000026401000000009004565b62000491565b6000805460019081018083556040805160e08101825282815260208082018c81528284018c9052606083018b9052608083018a905260a0830189905260c0830188905293865284815291909420845181559151805192936200017e93908501929190910190620003ec565b50604082015180516200019c916002840191602090910190620003ec565b50606082015160038201556080820151600482015560a08201518051620001ce916005840191602090910190620003ec565b5060c08201518051620001ec916006840191602090910190620003ec565b509050507fbf554370a08a558b7d8718d97dea4172d2bbef333b0000a295c420c14a0f71dc600054878787878787604051808881526020018060200180602001878152602001868152602001806020018060200185810385528b818151815260200191508051906020019080838360005b83811015620002775781810151838201526020016200025d565b50505050905090810190601f168015620002a55780820380516001836020036101000a031916815260200191505b5085810384528a5181528a516020918201918c019080838360005b83811015620002da578181015183820152602001620002c0565b50505050905090810190601f168015620003085780820380516001836020036101000a031916815260200191505b50858103835287518152875160209182019189019080838360005b838110156200033d57818101518382015260200162000323565b50505050905090810190601f1680156200036b5780820380516001836020036101000a031916815260200191505b50858103825286518152865160209182019188019080838360005b83811015620003a057818101518382015260200162000386565b50505050905090810190601f168015620003ce5780820380516001836020036101000a031916815260200191505b509b50505050505050505050505060405180910390a1505050505050565b828054600181600116156101000203166002900490600052602060002090601f016020900481019282601f106200042f57805160ff19168380011785556200045f565b828001600101855582156200045f579182015b828111156200045f57825182559160200191906001019062000442565b506200046d92915062000471565b5090565b6200048e91905b808211156200046d576000815560010162000478565b90565b610ac580620004a16000396000f3fe6080604052600436106100565763ffffffff7c0100000000000000000000000000000000000000000000000000000000600035041663117a5b90811461005b5780634525386614610244578063fb632b7c1461049a575b600080fd5b34801561006757600080fd5b506100856004803603602081101561007e57600080fd5b50356104c1565b604051808881526020018060200180602001878152602001868152602001806020018060200185810385528b818151815260200191508051906020019080838360005b838110156100e05781810151838201526020016100c8565b50505050905090810190601f16801561010d5780820380516001836020036101000a031916815260200191505b5085810384528a5181528a516020918201918c019080838360005b83811015610140578181015183820152602001610128565b50505050905090810190601f16801561016d5780820380516001836020036101000a031916815260200191505b50858103835287518152875160209182019189019080838360005b838110156101a0578181015183820152602001610188565b50505050905090810190601f1680156101cd5780820380516001836020036101000a031916815260200191505b50858103825286518152865160209182019188019080838360005b838110156102005781810151838201526020016101e8565b50505050905090810190601f16801561022d5780820380516001836020036101000a031916815260200191505b509b50505050505050505050505060405180910390f35b34801561025057600080fd5b50610498600480360360c081101561026757600080fd5b81019060208101813564010000000081111561028257600080fd5b82018360208201111561029457600080fd5b803590602001918460018302840111640100000000831117156102b657600080fd5b91908080601f016020809104026020016040519081016040528093929190818152602001838380828437600092019190915250929594936020810193503591505064010000000081111561030957600080fd5b82018360208201111561031b57600080fd5b8035906020019184600183028401116401000000008311171561033d57600080fd5b91908080601f016020809104026020016040519081016040528093929190818152602001838380828437600092019190915250929584359560208601359591945092506060810191506040013564010000000081111561039c57600080fd5b8201836020820111156103ae57600080fd5b803590602001918460018302840111640100000000831117156103d057600080fd5b91908080601f016020809104026020016040519081016040528093929190818152602001838380828437600092019190915250929594936020810193503591505064010000000081111561042357600080fd5b82018360208201111561043557600080fd5b8035906020019184600183028401116401000000008311171561045757600080fd5b91908080601f016020809104026020016040519081016040528093929190818152602001838380828437600092019190915250929550610733945050505050565b005b3480156104a657600080fd5b506104af6109f8565b60408051918252519081900360200190f35b600160208181526000928352604092839020805481840180548651600296821615610100026000190190911695909504601f8101859004850286018501909652858552909491939290919083018282801561055d5780601f106105325761010080835404028352916020019161055d565b820191906000526020600020905b81548152906001019060200180831161054057829003601f168201915b50505060028085018054604080516020601f60001961010060018716150201909416959095049283018590048502810185019091528181529596959450909250908301828280156105ef5780601f106105c4576101008083540402835291602001916105ef565b820191906000526020600020905b8154815290600101906020018083116105d257829003601f168201915b505050505090806003015490806004015490806005018054600181600116156101000203166002900480601f0160208091040260200160405190810160405280929190818152602001828054600181600116156101000203166002900480156106995780601f1061066e57610100808354040283529160200191610699565b820191906000526020600020905b81548152906001019060200180831161067c57829003601f168201915b5050505060068301805460408051602060026001851615610100026000190190941693909304601f81018490048402820184019092528181529495949350908301828280156107295780601f106106fe57610100808354040283529160200191610729565b820191906000526020600020905b81548152906001019060200180831161070c57829003601f168201915b5050505050905087565b6000805460019081018083556040805160e08101825282815260208082018c81528284018c9052606083018b9052608083018a905260a0830189905260c08301889052938652848152919094208451815591518051929361079c939085019291909101906109fe565b50604082015180516107b89160028401916020909101906109fe565b50606082015160038201556080820151600482015560a082015180516107e89160058401916020909101906109fe565b5060c082015180516108049160068401916020909101906109fe565b509050507fbf554370a08a558b7d8718d97dea4172d2bbef333b0000a295c420c14a0f71dc600054878787878787604051808881526020018060200180602001878152602001868152602001806020018060200185810385528b818151815260200191508051906020019080838360005b8381101561088d578181015183820152602001610875565b50505050905090810190601f1680156108ba5780820380516001836020036101000a031916815260200191505b5085810384528a5181528a516020918201918c019080838360005b838110156108ed5781810151838201526020016108d5565b50505050905090810190601f16801561091a5780820380516001836020036101000a031916815260200191505b50858103835287518152875160209182019189019080838360005b8381101561094d578181015183820152602001610935565b50505050905090810190601f16801561097a5780820380516001836020036101000a031916815260200191505b50858103825286518152865160209182019188019080838360005b838110156109ad578181015183820152602001610995565b50505050905090810190601f1680156109da5780820380516001836020036101000a031916815260200191505b509b50505050505050505050505060405180910390a1505050505050565b60005481565b828054600181600116156101000203166002900490600052602060002090601f016020900481019282601f10610a3f57805160ff1916838001178555610a6c565b82800160010185558215610a6c579182015b82811115610a6c578251825591602001919060010190610a51565b50610a78929150610a7c565b5090565b610a9691905b80821115610a785760008155600101610a82565b9056fea165627a7a72305820ceecc3fe3dc50386fa3c6c452d9862dd924d81ba30f9b1ade3f5d11a5862d3ac0029",
  "source": "// SPDX-License-Identifier: MIT\r\npragma solidity >=0.4.22 <0.9.0;\r\n\r\ncontract ChessGames {\r\n\tuint public gamesCount = 0;\r\n\r\n\t//Structure of all tasks\r\n\tstruct Game {\r\n\t\tuint id;\r\n\t\tstring whitePlayer;\r\n        string blackPlayer;\r\n\t\tuint whiteElo;\r\n        uint blackElo;\r\n        string platform;\r\n        string result;\r\n\t}\r\n\r\n\tmapping(uint => Game) public games;\r\n\r\n\t//Event signalling task created\r\n\tevent GameAdded(\r\n\t\tuint id,\r\n\t\tstring whitePlayer,\r\n\t\tstring blackPlayer,\r\n        uint whiteElo,\r\n        uint blackElo,\r\n        string platform,\r\n        string result\r\n\t);\r\n\r\n\tconstructor() public {\r\n\t\taddGame(\"Magnus Carlsen\", \"Ian Nepomniachtchi\", 2855, 2782, \"FIDE World Championship 2021\", \"1 - 0\");\t\r\n\t}\r\n\r\n\t//Function to create Tasks in the smart contract\r\n\tfunction addGame(string memory _whitePlayer, string memory _blackPlayer, uint _whiteElo, uint _blackElo, string memory _platform, string memory _result) public {\r\n\t\tgamesCount++;\r\n\t\tgames[gamesCount] = Game(gamesCount, _whitePlayer, _blackPlayer, _whiteElo, _blackElo, _platform, _result);\r\n\t\temit GameAdded(gamesCount, _whitePlayer, _blackPlayer, _whiteElo, _blackElo, _platform, _result);\r\n\t}\r\n}",
  "sourcePath": "/home/thesingingmountain/Downloads/Eth Projects/chessgames-list-ethereum/contracts/ChessGames.sol",
  "compiler": {
    "name": "solc",
    "version": "0.5.0+commit.1d4f565a.Emscripten.clang"
  },
  "schemaVersion": "3.0.1",
  "updatedAt": "2021-12-28T08:40:31.578Z",
  "devdoc": {
    "methods": {}
  },
  "userdoc": {
    "methods": {}
  }
}